:100000000C945F000C94C9040C94F0040C9431021D
:100010000C9431020C9431020C9487000C94E00291
:100020000C9487000C9487000C9487000C94870034
:100030000C9487000C9487000C9487000C94870024
:100040000C94B3050C9487000C9468010C949A01ED
:100050000C9487000C9487000C9487000C94870004
:100060000C9474030C948700020000000800020145
:10007000000003040700000000000000000102046B
:10008000081020408001020408102001020408101A
:100090002004040404040404040202020202020311
:1000A000030303030300000000250028002B0000C9
:1000B000000000240027002A0000CA01AF05112417
:1000C0001FBECFEFD8E0DEBFCDBF11E0A0E0B1E0B2
:1000D000E8EAFDE002C005900D92AA32B107D9F717
:1000E00023E0AAE2B1E001C01D92AC32B207E1F711
:1000F00010E0CFE5D0E004C02197FE010E94CC06BD
:10010000CD35D107C9F70E94F8010C94D2060C94A2
:100110000000FC01918D228D892F90E0805C9F4F23
:10012000821B91098F7399270895FC01918D828D0F
:10013000981731F0828DE80FF11D858D90E00895BC
:100140008FEF9FEF0895FC01918D828D981761F0DC
:10015000828DDF01A80FB11D5D968C91928D9F5FFE
:100160009F73928F90E008958FEF9FEF0895FC01A9
:10017000538D448D252F30E0842F90E0821B930B0C
:10018000541710F0CF9608950197089580EC91E0F0
:10019000892B49F080E090E0892B29F00E94C00172
:1001A00081110C9400000895FC01848DDF01A80FDB
:1001B000B11DA35ABF4F2C91848D90E001968F738F
:1001C0009927848FA689B7892C93A089B1898C91AE
:1001D000837080648C93938D848D981306C00288FD
:1001E000F389E02D80818F7D80830895EF92FF92C7
:1001F0000F931F93CF93DF93EC0181E0888F9B8D4A
:100200008C8D981305C0E889F989808185FD26C009
:10021000F62E0B8D10E00F5F1F4F0F731127E02E8E
:100220008C8DE8120CC00FB607FCFACFE889F9896B
:10023000808185FFF5CFCE010E94D400F1CF8B8D58
:10024000FE01E80FF11DE35AFF4FF0829FB7F894CB
:100250000B8FEA89FB89808180620AC09FB7F8947E
:10026000EE89FF896083E889F989808183708064E1
:1002700080839FBF81E090E0DF91CF911F910F912C
:10028000FF90EF900895CF93DF93EC01888D882342
:10029000C9F0EA89FB89808185FD05C0A889B989F3
:1002A0008C9186FD0FC00FB607FCF5CF808185FFCE
:1002B000F2CFA889B9898C9185FFEDCFCE010E943C
:1002C000D400E7CFDF91CF91089580E090E00895CA
:1002D0001F920F920FB60F9211242F938F939F931B
:1002E000EF93FF93E0913A01F0913B018081E0911F
:1002F0004001F091410182FD12C090818091430143
:100300008F5F8F7320914401821751F0E091430178
:10031000F0E0E65DFE4F958F8093430101C0808140
:10032000FF91EF919F918F912F910F900FBE0F90A2
:100330001F9018951F920F920FB60F9211242F93B2
:100340003F934F935F936F937F938F939F93AF935D
:10035000BF93EF93FF938AE291E00E94D400FF9154
:10036000EF91BF91AF919F918F917F916F915F912D
:100370004F913F912F910F900FBE0F901F901895A6
:100380008AE291E00E94890021E0892B09F420E0B3
:10039000822F0895EAE2F1E01382128288EE93E060
:1003A000A0E0B0E084839583A683B78389E091E0E1
:1003B0009183808385EC90E09587848784EC90E03E
:1003C0009787868780EC90E0918B808B81EC90E022
:1003D000938B828B82EC90E0958B848B86EC90E003
:1003E000978B868B118E128E138E148E089508951E
:1003F0000E94FD050E94F7010E94A104C6ECD0E016
:100400000E94C7042097E1F30E94C600F9CFCF9263
:10041000DF92EF92FF920F931F93CF93DF936C01C4
:100420007A018B01C0E0D0E0CE15DF0581F0D80164
:100430006D918D01D601ED91FC910190F081E02D3F
:10044000C6010995892B11F02196EECF7E01C701D7
:10045000DF91CF911F910F91FF90EF90DF90CF90A0
:1004600008951F920F920FB60F9211242F933F936E
:100470004F935F936F937F938F939F93AF93BF93AC
:10048000EF93FF93E0910902F0910A02309709F48B
:1004900051C0968DA685B785858591FF04C09C9136
:1004A000892329F447C09C91892309F043C0A3897B
:1004B000B4899C918589809589238C9386899789B5
:1004C0000197F1F7608D718DA685B785558538E068
:1004D00020E0CB010197F1F7822F90E09595879569
:1004E000282F4C91452309F02068315091F7868DD3
:1004F00081FD20958091C80190E001968F73992726
:100500003091C701381749F0A091C801B0E0A75356
:10051000BE4F2C938093C80103C0868D8160868F67
:10052000828D938D0197F1F7A389B4899C91858978
:10053000892B8C93FF91EF91BF91AF919F918F91F8
:100540007F916F915F914F913F912F910F900FBECF
:100550000F901F901895813039F018F0823051F0CB
:10056000089510926E00089580916F008D7F8093A2
:100570006F000895809170008D7F8093700081E0FE
:100580008093B0008091B100887F84608093B10037
:100590001092B3000895CF93C82F80910001C81323
:1005A00007C0E8E6F0E084919FEF9093000101C05E
:1005B0008FEF0E94AB0260E08C2FCF910C949D06D0
:1005C0001F920F920FB60F9211242F933F934F93C8
:1005D0005F936F937F938F939F93AF93BF93EF93AB
:1005E000FF9380910E0290910F02A0911002B091A2
:1005F0001102892B8A2B8B2B51F190910B02E091E8
:100600000C02F0910D0280818927808380910E0277
:1006100090910F02A0911002B091110218161906C4
:100620001A061B06C4F480910E0290910F02A0914D
:100630001002B09111020197A109B10980930E0235
:1006400090930F02A0931002B093110204C0809106
:1006500000010E94CB02FF91EF91BF91AF919F915A
:100660008F917F916F915F914F913F912F910F905B
:100670000FBE0F901F90189540913402262F30E046
:10068000240F311D21323105DCF420917F0224300A
:10069000C9F4FC0180E090E0861758F430913402F0
:1006A0002191DC01AA5CBD4FA30FB11D2C930196D3
:1006B000F3CF80913402680F6093340280E0089594
:1006C00081E0089582E0089585ED8093BC008091DB
:1006D000BC0084FDFCCF10927F02089585EC8093CE
:1006E000BC0010927F0208951F920F920FB60F92D6
:1006F00011242F933F934F935F936F937F938F9327
:100700009F93AF93BF93EF93FF938091B900887F3E
:10071000803609F49EC078F5883209F45DC090F403
:10072000803109F456C038F4882309F4F5C08830C4
:1007300009F44FC0F5C0883109F44EC0803209F485
:100740005FC0EEC0803409F46AC058F4803309F405
:1007500057C0883309F0E4C0809312020E946E03F0
:10076000DFC0803509F44FC0883509F45DC0883496
:1007700009F0D6C0D3C0883909F4C4C0A8F48837BA
:1007800009F467C038F4883609F463C0803709F487
:1007900060C0C6C0883809F4B5C0803909F45FC0AC
:1007A000803809F0BDC05BC0803B09F483C038F4D9
:1007B000803A09F466C0883A09F47CC0B1C0803C34
:1007C00009F4A4C0883C09F4A1C0883B09F487C09F
:1007D000A7C080917E0210C090915702809156026E
:1007E000981770F5E091570281E08E0F80935702C1
:1007F000F0E0E85AFD4F80818093BB0085EC83C018
:10080000809312028BC0E091570281E08E0F80939B
:1008100057028091BB00F0E0E85AFD4F8083909131
:100820005702809156026BC0E091570281E08E0F13
:10083000809357028091BB00F0E0E85AFD4F80831F
:1008400080917D0281116AC081E080937C0284EAFC
:100850005EC083E080937F0210921302CFCF80911D
:100860001302803208F04EC0E091130281E08E0F37
:10087000809313028091BB00F0E0EC5EFD4F80831B
:10088000BDCF0E946E0380911302803230F4E0915C
:100890001302F0E0EC5EFD4F10826091130270E0F5
:1008A000E0917802F091790284E192E0099510924A
:1008B000130236C084E080937F02109235021092BA
:1008C0003402E0917A02F0917B0209958091340222
:1008D000811105C081E08093340210923602E091CC
:1008E000350281E08E0F80933502F0E0EA5CFD4F27
:1008F00080818093BB0090913502809134029817DB
:1009000008F47CCF85E88093BC000AC085EC809316
:10091000BC0010927F0204C0109212020E94640375
:10092000FF91EF91BF91AF919F918F917F916F91C7
:100930005F914F913F912F910F900FBE0F901F909D
:10094000189562E08CE00E94610661E08DE00E94F3
:1009500061066091D0027091D10220E04FEF53E028
:10096000822F90E08617970774F4880F991FFC0177
:10097000E058FD4F11821082FC01E855FD4F518374
:1009800040832F5FEDCF61E08DE00C949D060895CC
:1009900008951F920F920FB60F9211242F933F9339
:1009A0004F935F936F937F938F939F93AF93BF9377
:1009B000EF93FF93E0910101F09102010995FF91FE
:1009C000EF91BF91AF919F918F917F916F915F91C7
:1009D0004F913F912F910F900FBE0F901F90189540
:1009E0001F920F920FB60F9211242F933F934F93A4
:1009F0005F936F937F938F939F93AF93BF93EF9387
:100A0000FF93E0910301F09104010995FF91EF91AB
:100A1000BF91AF919F918F917F916F915F914F9116
:100A20003F912F910F900FBE0F901F9018958091BE
:100A3000010390E020910203821B91090895909197
:100A4000020380910103981750F4E92FF0E0ED5F65
:100A5000FC4F208130E09F5F9093020302C02FEF94
:100A60003FEFC9010895E091020380910103E81767
:100A700030F4F0E0ED5FFC4F808190E008958FEF5F
:100A80009FEF08950895CF92DF92EF92FF920F9318
:100A90001F93CF93DF937C01CB018A012091DE026B
:100AA000222389F0EB016B01C40ED51ECC15DD05A8
:100AB00069F06991D701ED91FC910190F081E02DF1
:100AC000C7010995F3CF642F0E943C03C801DF9151
:100AD000CF911F910F91FF90EF90DF90CF900895ED
:100AE000CF93DF931F92CDB7DEB769832091DE02EB
:100AF0002223D1F02091DF02203240F021E030E0CB
:100B0000FC013383228380E090E015C08091E002F5
:100B1000E82FF0E0EF51FD4F998190838F5F809334
:100B2000E0028093DF0205C061E0CE0101960E94E1
:100B30003C0381E090E00F90DF91CF910895FC019C
:100B40001382128288EE93E0A0E0B0E08483958364
:100B5000A683B7838BE191E091838083089582ED32
:100B600092E00C949F051F920F920FB60F921124E2
:100B70002F933F938F939F93AF93BF9380912403C1
:100B800090912503A0912603B09127033091230370
:100B900023E0230F2D3720F40196A11DB11D05C0C0
:100BA00026E8230F0296A11DB11D209323038093F5
:100BB000240390932503A0932603B09327038091E9
:100BC000280390912903A0912A03B0912B03019649
:100BD000A11DB11D8093280390932903A0932A039C
:100BE000B0932B03BF91AF919F918F913F912F9124
:100BF0000F900FBE0F901F901895789484B5826067
:100C000084BD84B5816084BD85B5826085BD85B5B0
:100C1000816085BDEEE6F0E0808181608083E1E85F
:100C2000F0E0108280818260808380818160808397
:100C3000E0E8F0E0808181608083E1EBF0E080819A
:100C400084608083E0EBF0E0808181608083EAE76C
:100C5000F0E08081846080838081826080838081F5
:100C6000816080838081806880831092C1000895B4
:100C7000833081F028F4813099F08230A1F008951A
:100C80008730A9F08830B9F08430D1F480918000A9
:100C90008F7D03C0809180008F77809380000895BE
:100CA00084B58F7702C084B58F7D84BD089580910F
:100CB000B0008F7703C08091B0008F7D8093B0002B
:100CC0000895CF93DF9390E0FC01E358FF4F249108
:100CD000FC01EF56FF4F8491882361F190E0880F6B
:100CE000991FFC01E155FF4FC591D491FC01EB55D3
:100CF000FF4FA591B491611109C09FB7F894888105
:100D0000209582238883EC912E230BC0623061F4FE
:100D10009FB7F8948881322F309583238883EC9194
:100D20002E2B2C939FBF06C08FB7F894E8812E2BF3
:100D300028838FBFDF91CF9108951F93CF93DF93C7
:100D4000282F30E0F901E759FF4F8491F901E3586A
:100D5000FF4FD491F901EF56FF4FC491CC23C1F05E
:100D6000162F81110E943806EC2FF0E0EE0FFF1FC6
:100D7000EB55FF4FA591B4919FB7F894111104C0A2
:100D80008C91D095D82302C0EC91DE2BDC939FBFD1
:100D9000DF91CF911F910895EE0FFF1F0590F49101
:080DA000E02D0994F894FFCF47
:100DA800FFC804C80400000000F6000702B70043AB
:100DB800018900A300950000000000700543056547
:0A0DC80001420517051F0533050061
:00000001FF
